:020000040800F2
:1000000000500020D51100089D020008A102000840
:10001000A5020008A9020008AD02000800000000C7
:10002000000000000000000000000000B102000815
:10003000B502000800000000B9020008BD02000877
:100040001D1200081D1200081D1200081D120008D4
:100050001D1200081D1200081D1200081D120008C4
:100060001D1200081D1200081D1200081D120008B4
:100070001D1200081D1200081D1200081D120008A4
:100080001D1200081D1200081D1200081D12000894
:100090001D1200081D1200081D1200081D12000884
:1000A0001D1200081D1200081D1200081D12000874
:1000B0001D1200081D1200081D1200081D12000864
:1000C0001D1200081D1200081D1200081D12000854
:1000D0001D1200081D1200081D1200081D12000844
:1000E0001D1200081D1200081D120008000000006B
:1000F0000000000000000000000000000000000000
:0C01000000000000000000005FF808F1A3
:10010C0010B5054C237833B9044B13B10448AFF345
:10011C0000800123237010BD70000020000000003F
:10012C00F41A0008084B10B51BB108490848AFF386
:10013C0000800848036803B910BD074B002BFBD0A7
:10014C00BDE81040184700BF0000000074000020FC
:10015C00F41A00087000002000000000034613F899
:10016C00012B002AFBD1181A0138704730B591B019
:10017C002822002106A801F073F8002401940294AF
:10018C00039404940594012206924FF48033079350
:10019C000A9202250D950E934FF4E0130F9306A8C7
:1001AC0000F00CF90F230193029503944FF4806334
:1001BC0004930594294601A800F052FB11B030BD00
:1001CC0008B500F0C1F8FFF7D1FF00F009F800F016
:1001DC00B1FD00F09BFF00F09FFFFCE7704700BFF4
:1001EC00F0B589B000240494059406940794254B2B
:1001FC009A6942F010029A619A6902F01002009218
:10020C00009A9A6942F020029A619A6902F02002DF
:10021C000192019A9A6942F008029A619A6902F075
:10022C0008020292029A9A6942F004029A619B694E
:10023C0003F004030393039B134F22464FF4005126
:10024C00384600F0D9FC114E22464FF4805130460E
:10025C0000F0D2FC4FF4005304930125059506944D
:10026C000224079404A9384600F0D8FB4FF48053BD
:10027C00049305950695079404A9304600F0CEFB2F
:10028C0009B0F0BD0010024000100140000C01400C
:10029C00704700BFFEE700BFFEE700BFFEE700BFF0
:1002AC00FEE700BF704700BF704700BF704700BF3C
:1002BC0008B500F05BF808BD82B00E4B9A6942F0AD
:1002CC0001029A619A6902F001020092009ADA69BD
:1002DC0042F08052DA61DB6903F080530193019B99
:1002EC00054A536823F0E06343F00073536002B097
:1002FC00704700BF001002400000014010B50446DA
:10030C000E4B18784FF47A73B3FBF0F30C4A106869
:10031C00B0FBF3F000F0C2FC58B90F2C0BD8002244
:10032C0021464FF0FF3000F087FC064B1C6000208C
:10033C0010BD012010BD012010BD00BF0400002025
:10034C00080000200000002008B5074A136843F09D
:10035C0010031360032000F05DFC0020FFF7CEFFBC
:10036C00FFF7AAFF002008BD00200240034A1368D3
:10037C00034909780B441360704700BFB00000209C
:10038C0004000020014B1868704700BFB00000202B
:10039C0082B0084B1B68084AA2FB03235B0A00FBD4
:1003AC0003F0019000BF019B5A1E0192002BF9D162
:1003BC0002B0704708000020D34D6210002800F0F6
:1003CC00EC8170B582B00446036813F0010F6BD05A
:1003DC00A84B5B6803F00C03042B0AD0A54B5B689D
:1003EC0003F00C03082B0DD1A24B5B6813F4803F78
:1003FC0008D0A04B1B6813F4003F55D06368002B4A
:10040C0052D1CCE16368B3F5803F05D1994A1368AA
:10041C0043F48033136026E063B903F1804303F5A2
:10042C0004331A6822F480321A601A6822F480228B
:10043C001A6018E0B3F5A02F0CD103F18043A3F59B
:10044C003C331A6842F480221A601A6842F48032F3
:10045C001A6008E0874B1A6822F480321A601A6816
:10046C0022F480221A6063687BB1FFF78BFF05468C
:10047C0005E0FFF787FF401B642800F292817D4B5B
:10048C001B6813F4003FF4D00EE0FFF77BFF05462A
:10049C0005E0FFF777FF401B642800F28481754B61
:1004AC001B6813F4003FF4D1236813F0020F50D0F3
:1004BC00704B5B6813F00C0F0AD06E4B5B6803F04B
:1004CC000C03082B16D16B4B5B6813F4803F11D1D6
:1004DC00684B1B6813F0020F03D02369012B40F00B
:1004EC006481644A136823F0F803616943EAC10329
:1004FC0013602EE02369D3B101225F4B1A60FFF722
:10050C0041FF054605E0FFF73DFF401B022800F2C6
:10051C004E81584B1B6813F0020FF4D0554A1368E8
:10052C0023F0F803616943EAC103136011E0002270
:10053C00514B1A60FFF726FF054605E0FFF722FF37
:10054C00401B022800F235814A4B1B6813F0020F46
:10055C00F4D1236813F0080F29D0A369ABB10122A1
:10056C00464B1A60FFF70EFF054605E0FFF70AFF42
:10057C00401B022800F21F813E4B5B6A13F0020FF6
:10058C00F4D00120FFF704FF11E000223B4B1A606E
:10059C00FFF7F8FE054605E0FFF7F4FE401B0228C6
:1005AC0000F20B81334B5B6A13F0020FF4D123681A
:1005BC0013F0040F00F08B802E4BDB6913F0805F7F
:1005CC000BD12C4BDA6942F08052DA61DB6903F013
:1005DC0080530193019B012500E00025284B1B68EB
:1005EC0013F4807F13D1264A136843F4807313608D
:1005FC00FFF7C8FE064605E0FFF7C4FE801B642823
:10060C0000F2DD801E4B1B6813F4807FF4D0E3688E
:10061C00012B05D1174A136A43F00103136222E040
:10062C0063B903F1804303F504331A6A22F0010223
:10063C001A621A6A22F004021A6214E0052B09D11C
:10064C000C4B1A6A42F004021A621A6A42F0010256
:10065C001A6208E0074B1A6A22F001021A621A6A3F
:10066C0022F004021A62E368D3B1FFF78BFE064650
:10067C0010E000BF001002400000424280044242E1
:10068C0000700040FFF77EFE801B41F288339842D9
:10069C0000F29780544B1B6A13F0020FF2D010E05B
:1006AC00FFF770FE064607E0FFF76CFE801B41F279
:1006BC008833984200F287804B4B1B6A13F0020F71
:1006CC00F2D125B1484AD36923F08053D361E36951
:1006DC00002B7AD0444A526802F00C02082A4CD003
:1006EC00022B37D10022414B1A60FFF74BFE054617
:1006FC0004E0FFF747FE401B022868D83A4B1B6802
:10070C0013F0007FF5D1236AB3F5803F06D136494B
:10071C004B6823F40032A36813434B6032484368A0
:10072C0023F47411236A626A13430B43436001225E
:10073C002E4B1A60FFF726FE044604E0FFF722FE5C
:10074C00001B022845D8284B1B6813F0007FF5D0FE
:10075C00002047E00022254B1A60FFF713FE0446E9
:10076C0004E0FFF70FFE001B022834D81E4B1B6859
:10077C0013F0007FF5D1002034E0012B2DD01A4B63
:10078C005B6803F48031226A914228D103F4701320
:10079C00626A934225D0012024E001207047012099
:1007AC0020E003201EE003201CE001201AE00320BF
:1007BC0018E0032016E0032014E0032012E00320CD
:1007CC0010E003200EE003200CE000200AE00320E0
:1007DC0008E0032006E0032004E0012002E00120F1
:1007EC0000E0002002B070BD0010024060004242E8
:1007FC0030B486B0164D02AC28686968AA68EB68FC
:10080C000FC42B8AADF80430124B5B6803F00C025A
:10081C00082A19D1C3F3834206A90A4412F8100C12
:10082C0013F4803F0CD00B4B5B68C3F340430B4479
:10083C0013F8142C084B03FB00F0B0FBF2F004E0AF
:10084C00064B03FB00F000E0034806B030BC7047D9
:10085C000C1B00080010024000127A0000093D0039
:10086C00002800F09D8070B50446544B1B6803F0C3
:10087C0007038B420BD2514A136823F007030B4337
:10088C001360136803F00703994240F08B802368D0
:10089C0013F0020F17D013F0040F04D0484A53681A
:1008AC0043F4E0635360236813F0080F04D0444A08
:1008BC00536843F4605353604148436823F0F0029B
:1008CC00A368134343600D46236813F0010F2ED029
:1008DC006268012A05D13A4B1B6813F4003F0DD115
:1008EC0062E0022A05D1364B1B6813F0007F05D15C
:1008FC005CE0334B1B6813F0020F59D030494B6846
:10090C0023F0030313434B60FFF73CFD064606E060
:10091C00FFF738FD801B41F2883398424AD8284BA8
:10092C005B6803F00C036268B3EB820FF0D1234BCE
:10093C001B6803F007039D420AD2204A136823F078
:10094C0007032B431360136803F007039D4233D155
:10095C00236813F0040F06D019494B6823F4E062A6
:10096C00E36813434B60236813F0080F07D0144A55
:10097C00536823F46053216943EAC1035360FFF7C2
:10098C0037FF0F4B5B68C3F303130E4AD35CD8409D
:10099C000D4B18600D4B1868FFF7B0FC002070BDB4
:1009AC0001207047012070BD012070BD012070BD79
:1009BC00012070BD032070BD012070BD00200240DD
:1009CC0000100240201B000808000020000000203E
:1009DC00014B1868704700BF0800002008B5FFF7EE
:1009EC00F7FF044B5B68C3F30223034AD35CD84084
:1009FC0008BD00BF00100240301B000808B5FFF70F
:100A0C00E7FF044B5B68C3F3C223034AD35CD840B3
:100A1C0008BD00BF00100240301B0008F0B583B0C9
:100A2C0000263446D4E00122A24013409A4240F002
:100A3C00CE804D68122D2DD00BD8022D27D003D887
:100A4C005DB3012D1ED035E0032D30D0112D1BD000
:100A5C0030E0634FBD4220D008D8A7F58017BD42C7
:100A6C001BD007F58037BD4224D116E05D4FBD4247
:100A7C0013D007F58037BD420FD0A7F58017BD42C4
:100A8C0018D10AE0CE6815E0CE68043612E0CE68C4
:100A9C0008360FE0CE680C360CE08D684DB1012D98
:100AAC0002D10261082605E04261082602E0002618
:100ABC0000E00426FF2B01D8864601E000F1040E6D
:100ACC00FF2B01D8A20002E0A4F108029200DEF88C
:100ADC0000700F25954027EA050506FA02F22A4315
:100AEC00CEF800204A6812F0805F70D03E4A9569BB
:100AFC0045F001059561926902F001020192019A9B
:100B0C00A708BD1C394A52F8255004F00302920084
:100B1C004FF00F0E0EFA02FE25EA0E0E344DA842CF
:100B2C000DD005F58065A8420BD005F58065A8426F
:100B3C0009D005F58065A84207D1032506E00025FC
:100B4C0004E0012502E0022500E0042505FA02F28A
:100B5C004EEA02020237254D45F827204A6812F466
:100B6C00803F05D005F580652A681A432A6004E0A9
:100B7C00204D2A6822EA03022A604A6812F4003FD8
:100B8C0004D01C4D6A681A436A6004E0194D6A6807
:100B9C0022EA03026A604A6812F4801F04D0154DE1
:100BAC00AA681A43AA6004E0124DAA6822EA03025A
:100BBC00AA604A6812F4001F04D00E4DEA68134371
:100BCC00EB6004E00B4DEA6822EA0303EB600134AE
:100BDC000B6833FA04F27FF426AF03B0F0BD00BF0C
:100BEC0000002110000031100010024000000140F4
:100BFC0000080140000401400AB10161704709047A
:100C0C0001617047C3680B4201D0416170470161BB
:100C1C00704700BF074AD36823F4E0631B041B0C26
:100C2C00000200F4E060184340F0BF6040F4003074
:100C3C00D060704700ED00E030B4164BDB68C3F3B6
:100C4C000223C3F10704042C28BF04241D1D062D08
:100C5C0001D9DD1E00E00025012303FA04F4013C58
:100C6C002140A940AB40013B1A400A43002808DB55
:100C7C001201D2B200F1604000F5614080F800230F
:100C8C0005E000F00F001201D2B2034B1A5430BC35
:100C9C00704700BF00ED00E014ED00E00138B0F14A
:100CAC00807F0AD2064B5860F021064A82F8231046
:100CBC000020986007221A6070470120704700BF1F
:100CCC0010E000E000ED00E0042805D1054A1368AF
:100CDC0043F0040313607047024A136823F00403C3
:100CEC001360704710E000E00F4B1A6842F00102ED
:100CFC001A6059680D4A0A405A601A6822F08472C8
:100D0C0022F480321A601A6822F480221A605A681F
:100D1C0022F4FE025A604FF41F029A604FF00062F8
:100D2C00034B9A60704700BF001002400000FFF8B0
:100D3C0000ED00E008B50A480A4B03604FF4E133BC
:100D4C00436000238360C36003610C2242618361B2
:100D5C00C36100F0DFF808B1FFF740FA08BD00BF2F
:100D6C00B40000200038014010B586B00023029377
:100D7C000393049305930268174B9A4229D103F508
:100D8C0058439A6942F480429A619A6902F480420B
:100D9C000092009A9A6942F004029A619B6903F0EE
:100DAC0004030193019B4FF40073029302230393FA
:100DBC0003230593094C02A92046FFF72FFE4FF49D
:100DCC008063029300230393049302A92046FFF748
:100DDC0025FE06B010BD00BF0038014000080140E0
:100DEC0010B5044601680B6923F44052C3681343E1
:100DFC000B61816803691943436919430068C26830
:100E0C0022F4B05323F00C030B43C36021684B69ED
:100E1C0023F44072A36913434B612268214B9A421D
:100E2C001FD1FFF7EBFD216800EB800000EB800089
:100E3C0063689B00B0FBF3F01B4BA3FB002464091D
:100E4C00642202FB140212013232A3FB02235B095F
:100E5C0003F0F00202EB041403F00F0323448B6045
:100E6C0010BDFFF7BBFD216800EB800000EB80009C
:100E7C0063689B00B0FBF3F00B4BA3FB00246409ED
:100E8C00642202FB140212013232A3FB02235B091F
:100E9C0003F0F00202EB041403F00F0323448B6005
:100EAC0010BD00BF003801401F85EB512DE9F0410A
:100EBC0005460F4616469846069C1EE0B4F1FF3FC9
:100ECC001BD02CB1FFF75EFAC8EB0000844214D2A1
:100EDC002A68D36823F4D073D3602A68536923F04B
:100EEC0001035361202385F8393085F83A3000230B
:100EFC0085F838300320BDE8F0812B681B6837EA91
:100F0C0003030CBF01230023B342D7D00020BDE85C
:100F1C00F08100BF68B310B5044690F8393013F077
:100F2C00FF0F04D1002380F83830FFF71DFF242376
:100F3C0084F839302268D36823F40053D3602046F8
:100F4C00FFF74EFF2268136923F490431361226864
:100F5C00536923F02A0353612268D36843F4005386
:100F6C00D3600020E063202384F8393084F83A30D1
:100F7C0010BD0120704700BF2DE9F04182B01E4624
:100F8C0090F83930DBB2202B56D104460D469046F2
:100F9C00002953D0002A53D090F83830012B51D06F
:100FAC00012380F838300023C363212380F83930C3
:100FBC00FFF7E8F90746A4F82480A4F8268027E078
:100FCC00E38C9BB2013B9BB2E384A368B3F5805FD7
:100FDC0012D100963B46002280212046FFF766FF87
:100FEC0090BB22682B88C3F30803536023690BB9A9
:100FFC0002350DE001350BE000963B4600228021C6
:10100C002046FFF753FF08BB23682A785A60013546
:10101C00E38C9BB2002BD3D100963B46002240219F
:10102C002046FFF743FF034690B9202284F839206D
:10103C00002284F838200CE002230AE0012308E0A7
:10104C00012306E0022304E0032302E0032300E073
:10105C000323184602B0BDE8F08100BF034B1B68A8
:10106C00C31A092B01D9014B18607047940000205A
:10107C00034B1B68C31A312B01D9014B1860704705
:10108C0090000020034B1B68C31A632B01D9014B42
:10109C001860704798000020084B1B68C31AB3F502
:1010AC00FA7F09D310B504464FF400510448FFF7FA
:1010BC00A9FD024B1C6010BD704700BF9C000020B6
:1010CC000010014010B588B004462022002168466B
:1010DC0000F0C6F80A4B1B68E31AB3F57A7F0CD301
:1010EC0022460849684600F0C3F8684600F02AF822
:1010FC00054800F027F8024B1C6008B010BD00BF7B
:10110C008C000020381B0008441B000808B5482040
:10111C0000F026F808BD00BF10B5FFF733F9044600
:10112C00FFF79CFF2046FFF7A3FF2046FFF7AAFF1F
:10113C002046FFF7B1FF2046FFF7C4FF052000F063
:10114C0037F810BD10B50446FFF708F8642382B2D7
:10115C0021460248FFF710FF10BD00BFB40000206D
:10116C0010B504460420FFF7AFFD014B1C6010BD09
:10117C00A000002030B40C4A55680C4B1B6800FBD7
:10118C0003F0936800211A46074B9B689A42FBD0E8
:10119C0002D9D21A114402E0EC1A224411448142C1
:1011AC00F1D330BC704700BF10E000E0A00000207D
:1011BC0038B50546002404E04FF47A70FFF7DAFFE7
:1011CC000134AC42F8D338BD002103E00B4B5B5823
:1011DC00435004310A480B4B42189A42F6D30A4A40
:1011EC0002E0002342F8043B084B9A42F9D3FFF784
:1011FC007BFD00F00FF8FEF7E3FF7047901B000833
:10120C00000000207000002070000020F80000207A
:10121C00FEE700000E4B70B51E460E4C0025E41A7E
:10122C00A410A54204D056F8253098470135F8E7AC
:10123C0000F05AFC084B094C1E46E41AA410002579
:10124C00A54204D056F8253098470135F8E770BD13
:10125C00881B0008881B0008881B00088C1B0008D2
:10126C0003460244934202D003F8011BFAE770478D
:10127C000EB400B54FF402719CB0ADF814106FF0C1
:10128C000041049107914FF6FF711DAB029006903F
:10129C00084853F8042BADF81610006802A9019306
:1012AC0000F064F8029B00221A701CB05DF804EB8D
:1012BC0003B070476C0000202DE9F0478E68824621
:1012CC009E420C46914698463ED88A8912F4906FFD
:1012DC003AD02568096902236F1A656905EB450543
:1012EC0095FBF3F57B1C43449D4238BF1D465305CB
:1012FC000FD5294600F04AFB064698B13A462169BB
:10130C0000F0D2FAA38923F4906343F08003A38105
:10131C0013E02A4600F098FB064670B92169504646
:10132C0000F0E8FA0C23CAF80030A3894FF0FF3024
:10133C0043F04003A381BDE8F08726613E4426605C
:10134C0046466561ED1BA560464528BF46464946A5
:10135C003246206800F0B3FAA36800209B1BA36000
:10136C0023681E442660BDE8F08700002DE9F04F8D
:10137C009DB003938B8980461C060D4616460DD5F1
:10138C000B695BB9402100F001FB2860286118B99A
:10139C000C23C8F80030CDE040236B610023099387
:1013AC0020238DF82930DFF89CB130238DF82A30BA
:1013BC0037463C4614F8013B1BB9B7EB060910D075
:1013CC0003E0252BF9D02746F3E74B463246294656
:1013DC004046FFF771FF013000F0A780099B4B449A
:1013EC0009933B78002B00F0A08000234FF0FF32D4
:1013FC0004930793059206938DF853301A930126A4
:10140C00052221784E4800F041FA671C049B38B144
:10141C004B4A3C46801A06FA00F018430490EFE75A
:10142C00D90644BF20228DF853201A0744BF2B2223
:10143C008DF8532022782A2A03D0079A00210A20FB
:10144C000BE0039A111D12680391002A10DA524224
:10145C0043F00200079204900BE027463B780134DE
:10146C00303B092B03D800FB02320121F5E701B117
:10147C0007923B782E2B1ED17B782A2B0AD1039B0B
:10148C0002371A1D1B680392002BB8BF4FF0FF33B5
:10149C00059310E0002319460593781C0A2407468F
:1014AC003A780130303A092A03D804FB0121012390
:1014BC00F5E703B1059103223978224800F0E6F9EB
:1014CC0040B14023CBEB000003FA00F0049B013742
:1014DC0018430490397806221B487E1C8DF828107E
:1014EC0000F0D4F988B1194B33B9039B073323F0BF
:1014FC0007030833039314E003AB00932A46144B01
:10150C0004A94046AFF3008007E003AB00932A46E2
:10151C000F4B04A9404600F093F8B0F1FF3F824610
:10152C0003D0099B5344099342E7AB895B0601D472
:10153C00099801E04FF0FF301DB0BDE8F08F00BFFF
:10154C00541B00085A1B00085E1B0008000000001A
:10155C00C51200082DE9F04791461F460A698B68B1
:10156C0006469342B8BF1346C9F8003091F84320A1
:10157C000C46DDF8208012B10133C9F80030236825
:10158C00990642BFD9F800300233C9F800302568FB
:10159C0015F0060510D104F1190A07E00123524693
:1015AC0039463046C04701301AD00135E368D9F8C6
:1015BC0000209B1A9D42F1DB94F8433022680033E3
:1015CC0018BF012392060FD5E118302081F8430093
:1015DC005A1C94F845102244023382F8431003E05D
:1015EC004FF0FF30BDE8F08704F143023946304636
:1015FC00C0470130F4D02268D9F80050E36802F0FB
:10160C000602042A08BF5D1B2269A3680CBF25EAE9
:10161C00E57500259342C4BF9B1AED184FF00009E5
:10162C001A344D4509D00123224639463046C0476D
:10163C000130D5D009F10109F3E70020BDE8F087AE
:10164C002DE9F04317460A7E85B06E2A9846064669
:10165C000C460C9B01F1430E00F0AE8011D8632AAE
:10166C0022D009D8002A00F0BB80582A40F0CA804A
:10167C0081F84520834955E0642A1ED0692A1CD084
:10168C00C0E0732A00F0B08009D86F2A2ED0702ADF
:10169C0040F0B8800A6842F020020A603EE0752AE9
:1016AC0024D0782A3AD0ADE01A6801F14205111D18
:1016BC001960136884F84230A8E021681A6811F0A8
:1016CC00800F02D0111D196008E011F0400F02F1DB
:1016DC000401196002D0B2F9003000E01368002B4D
:1016EC003CDA2D225B4284F8432037E021681A68EB
:1016FC0011F0800F02D0111D196007E011F0400F9E
:10170C0002F10401196001D0138800E01368227EF5
:10171C005C496F2A14BF0A2208221BE078225A491E
:10172C0084F845202268186812F0800F00F1040537
:10173C001D6003D1550601D5038800E00368D0076E
:10174C0044BF42F0200222601BB9226822F0200222
:10175C0022601022002084F8430001E049490A224B
:10176C006568002DA56008DB206820F0040020606F
:10177C002BB9002D7DD175460CE0002B79D0754628
:10178C00B3FBF2F002FB1033CB5C05F8013D0346D2
:10179C000028F5D1082A0BD12368DA0708D523696C
:1017AC0062689A42DEBF302305F8013C05F1FF3533
:1017BC00C5EB0E0323612EE008681A6810F0800F49
:1017CC00496903D0101D1860136808E010F0400F31
:1017DC0002F104001860136801D0198000E0196050
:1017EC0000232361754616E01A68111D19601568EF
:1017FC0000216268284600F049F808B1401B60607F
:10180C00636804E004F1420584F84220012323615B
:10181C00002384F84330CDF800803B4603AA2146D0
:10182C003046FFF797FE013002D14FF0FF3026E033
:10183C0023692A4639463046C0470130F5D0236823
:10184C009B0710D5002504F1190907E001234A462E
:10185C0039463046C0470130E7D00135E368039A7A
:10186C009B1A9D42F2DBE068039B9842B8BF184676
:10187C0005E00B7804F1420584F842308AE705B0A4
:10188C00BDE8F083651B0008761B000810B5C9B2D3
:10189C0002449042034605D01C7801308C42F8D1AA
:1018AC00184610BD002010BD10B5431E0A449142CD
:1018BC0004D011F8014B03F8014FF8E710BD884232
:1018CC0010B501EB020301D8421E0BE09842FBD28B
:1018DC008118D21AD34204D013F8014D01F8014DEE
:1018EC00F8E710BD994204D011F8014B02F8014FF2
:1018FC00F8E710BD38B50546002944D051F8043C32
:10190C000C1F002BB8BFE41800F0D4F81E4A136863
:10191C00114613B96360146030E0A3420DD92268FC
:10192C00A018834201BF18685B68121822606360BC
:10193C000C6023E0A24203D813465A68002AF9D15E
:10194C0018681918A1420BD1216801445818824219
:10195C00196013D110685268014419605A600DE087
:10196C0002D90C232B6009E021686018824201BF68
:10197C00106852680918216062605C602846BDE8F6
:10198C00384000F098B838BDA800002070B5CD1CC8
:10199C0025F0030508350C2D38BF0C25002D064607
:1019AC0001DBA94202D90C23336046E000F082F837
:1019BC00234B1C681A462146A1B10B685B1B0ED445
:1019CC000B2B03D90B60CC18CD501EE08C420BBFF7
:1019DC0063684B681360636018BF0C4615E00C46D7
:1019EC004968E9E7174C23681BB9304600F052F8F8
:1019FC0020602946304600F04DF8431C18D0C41C1A
:101A0C0024F00304A0420DD12560304600F053F8B9
:101A1C0004F10B00231D20F00700C31A0ED05A420C
:101A2C00E25070BD211A304600F034F80130EBD191
:101A3C000C233360304600F03EF8002070BD00BF30
:101A4C00A8000020A4000020F8B5074615460E4655
:101A5C0021B91146BDE8F840FFF798BF1AB9FFF756
:101A6C0049FF2846F8BD00F027F885420ED92946D3
:101A7C003846FFF78BFF044650B131462A46FFF734
:101A8C0013FF31463846FFF735FF01E03046F8BD0D
:101A9C002046F8BD38B5064C0023054608462360A1
:101AAC0000F014F8431C02D1236803B12B6038BD3D
:101ABC00F40000207047704751F8040C0028BEBF9A
:101ACC00091851F8043CC01804387047044A0549F9
:101ADC001368002B08BF0B4618441060184670475B
:101AEC00AC000020F8000020F8B500BFF8BC08BC22
:101AFC009E467047F8B500BFF8BC08BC9E467047C0
:101B0C0002030405060708090A0B0C0D0E0F101032
:101B1C0001020000000000000000000001020304AC
:101B2C000607080900000000010203047469636BD6
:101B3C004D73203D2025640068656C6C6F20776FB9
:101B4C00726C640D0A000000232D302B2000686C91
:101B5C004C006566674546470030313233343536C4
:101B6C0037383941424344454600303132333435FD
:0C1B7C003637383961626364656600002A
:041B8800310100081F
:041B8C000D0100083F
:101B900010000000010000000024F400000000001C
:101BA0000000000000000000000000000000000035
:101BB0000000000000000000000000000000000025
:101BC0000000000000000000000000000000000015
:101BD0000000000000000000000000000000000005
:101BE00000000000000000000000000000000000F5
:101BF0000000000000000000000000000C000020B9
:04000005080011D509
:00000001FF
